{
  "_format": "hh-sol-artifact-1",
  "contractName": "EDelivery",
  "sourceName": "contracts/EDelivery.sol",
  "abi": [
    {
      "inputs": [
        {
          "internalType": "address",
          "name": "_sender",
          "type": "address"
        },
        {
          "internalType": "address[]",
          "name": "_receivers",
          "type": "address[]"
        },
        {
          "internalType": "string",
          "name": "_message",
          "type": "string"
        }
      ],
      "stateMutability": "payable",
      "type": "constructor"
    },
    {
      "inputs": [],
      "name": "message",
      "outputs": [
        {
          "internalType": "string",
          "name": "",
          "type": "string"
        }
      ],
      "stateMutability": "view",
      "type": "function"
    },
    {
      "inputs": [
        {
          "internalType": "uint256",
          "name": "",
          "type": "uint256"
        }
      ],
      "name": "receivers",
      "outputs": [
        {
          "internalType": "address",
          "name": "",
          "type": "address"
        }
      ],
      "stateMutability": "view",
      "type": "function"
    },
    {
      "inputs": [],
      "name": "sender",
      "outputs": [
        {
          "internalType": "address",
          "name": "",
          "type": "address"
        }
      ],
      "stateMutability": "view",
      "type": "function"
    }
  ],
  "bytecode": "0x60806040526040516104b33803806104b38339818101604052606081101561002657600080fd5b81516020830180516040519294929383019291908464010000000082111561004d57600080fd5b90830190602082018581111561006257600080fd5b825186602082028301116401000000008211171561007f57600080fd5b82525081516020918201928201910280838360005b838110156100ac578181015183820152602001610094565b50505050905001604052602001805160405193929190846401000000008211156100d557600080fd5b9083019060208201858111156100ea57600080fd5b825164010000000081118282018810171561010457600080fd5b82525081516020918201929091019080838360005b83811015610131578181015183820152602001610119565b50505050905090810190601f16801561015e5780820380516001836020036101000a031916815260200191505b506040525050600080546001600160a01b0319166001600160a01b0386161790555081516101939060019060208501906101b0565b5080516101a7906002906020840190610215565b505050506102a6565b828054828255906000526020600020908101928215610205579160200282015b8281111561020557825182546001600160a01b0319166001600160a01b039091161782556020909201916001909101906101d0565b50610211929150610291565b5090565b828054600181600116156101000203166002900490600052602060002090601f01602090048101928261024b5760008555610205565b82601f1061026457805160ff1916838001178555610205565b82800160010185558215610205579182015b82811115610205578251825591602001919060010190610276565b5b808211156102115760008155600101610292565b6101fe806102b56000396000f3fe608060405234801561001057600080fd5b50600436106100415760003560e01c806367e404ce14610046578063bfd772fc1461006a578063e21f37ce14610087575b600080fd5b61004e610104565b604080516001600160a01b039092168252519081900360200190f35b61004e6004803603602081101561008057600080fd5b5035610113565b61008f61013d565b6040805160208082528351818301528351919283929083019185019080838360005b838110156100c95781810151838201526020016100b1565b50505050905090810190601f1680156100f65780820380516001836020036101000a031916815260200191505b509250505060405180910390f35b6000546001600160a01b031681565b6001818154811061012357600080fd5b6000918252602090912001546001600160a01b0316905081565b6002805460408051602060018416156101000260001901909316849004601f810184900484028201840190925281815292918301828280156101c05780601f10610195576101008083540402835291602001916101c0565b820191906000526020600020905b8154815290600101906020018083116101a357829003601f168201915b50505050508156fea264697066735822122038aacc1a3771659e8bbe6748decf6497494f3eba8d3387ff6126a384b46cdda564736f6c63430007040033",
  "linkReferences": {},
  "deployedLinkReferences": {}
}