{
  "_format": "hh-sol-artifact-1",
  "contractName": "EDeliveryFactory",
  "sourceName": "contracts/EDelivery.sol",
  "abi": [
    {
      "inputs": [
        {
          "internalType": "address[]",
          "name": "_receivers",
          "type": "address[]"
        },
        {
          "internalType": "string",
          "name": "_message",
          "type": "string"
        }
      ],
      "name": "createDelivery",
      "outputs": [],
      "stateMutability": "payable",
      "type": "function"
    },
    {
      "inputs": [
        {
          "internalType": "uint256",
          "name": "",
          "type": "uint256"
        }
      ],
      "name": "deliveries",
      "outputs": [
        {
          "internalType": "contract EDelivery",
          "name": "",
          "type": "address"
        }
      ],
      "stateMutability": "view",
      "type": "function"
    },
    {
      "inputs": [],
      "name": "getDeliveries",
      "outputs": [
        {
          "internalType": "contract EDelivery[]",
          "name": "",
          "type": "address[]"
        }
      ],
      "stateMutability": "view",
      "type": "function"
    },
    {
      "inputs": [],
      "name": "getDeliveriesCount",
      "outputs": [
        {
          "internalType": "uint256",
          "name": "",
          "type": "uint256"
        }
      ],
      "stateMutability": "view",
      "type": "function"
    },
    {
      "inputs": [
        {
          "internalType": "address",
          "name": "_receiver",
          "type": "address"
        }
      ],
      "name": "getReceiverDeliveries",
      "outputs": [
        {
          "internalType": "contract EDelivery[]",
          "name": "",
          "type": "address[]"
        }
      ],
      "stateMutability": "view",
      "type": "function"
    },
    {
      "inputs": [
        {
          "internalType": "address",
          "name": "_receiver",
          "type": "address"
        }
      ],
      "name": "getReceiverDeliveriesCount",
      "outputs": [
        {
          "internalType": "uint256",
          "name": "",
          "type": "uint256"
        }
      ],
      "stateMutability": "view",
      "type": "function"
    },
    {
      "inputs": [
        {
          "internalType": "address",
          "name": "_sender",
          "type": "address"
        }
      ],
      "name": "getSenderDeliveries",
      "outputs": [
        {
          "internalType": "contract EDelivery[]",
          "name": "",
          "type": "address[]"
        }
      ],
      "stateMutability": "view",
      "type": "function"
    },
    {
      "inputs": [
        {
          "internalType": "address",
          "name": "_sender",
          "type": "address"
        }
      ],
      "name": "getSenderDeliveriesCount",
      "outputs": [
        {
          "internalType": "uint256",
          "name": "",
          "type": "uint256"
        }
      ],
      "stateMutability": "view",
      "type": "function"
    },
    {
      "inputs": [
        {
          "internalType": "address",
          "name": "",
          "type": "address"
        },
        {
          "internalType": "uint256",
          "name": "",
          "type": "uint256"
        }
      ],
      "name": "receiverDeliveries",
      "outputs": [
        {
          "internalType": "contract EDelivery",
          "name": "",
          "type": "address"
        }
      ],
      "stateMutability": "view",
      "type": "function"
    },
    {
      "inputs": [
        {
          "internalType": "address",
          "name": "",
          "type": "address"
        },
        {
          "internalType": "uint256",
          "name": "",
          "type": "uint256"
        }
      ],
      "name": "senderDeliveries",
      "outputs": [
        {
          "internalType": "contract EDelivery",
          "name": "",
          "type": "address"
        }
      ],
      "stateMutability": "view",
      "type": "function"
    }
  ],
  "bytecode": "0x608060405234801561001057600080fd5b50610cab806100206000396000f3fe6080604052600436106100915760003560e01c806361fa3f491161005957806361fa3f49146102d657806383af39d11461030957806392b548b61461033c578063a9e4a32414610375578063c44e55a01461039f57610091565b8063138e0b2614610096578063438c4837146100fb5780634e4d40601461014057806356f7b28d1461015557806357bcf71614610281575b600080fd5b3480156100a257600080fd5b506100ab6103d2565b60408051602080825283518183015283519192839290830191858101910280838360005b838110156100e75781810151838201526020016100cf565b505050509050019250505060405180910390f35b34801561010757600080fd5b5061012e6004803603602081101561011e57600080fd5b50356001600160a01b0316610434565b60408051918252519081900360200190f35b34801561014c57600080fd5b5061012e61044f565b61027f6004803603604081101561016b57600080fd5b81019060208101813564010000000081111561018657600080fd5b82018360208201111561019857600080fd5b803590602001918460208302840111640100000000831117156101ba57600080fd5b919080806020026020016040519081016040528093929190818152602001838360200280828437600092019190915250929594936020810193503591505064010000000081111561020a57600080fd5b82018360208201111561021c57600080fd5b8035906020019184600183028401116401000000008311171561023e57600080fd5b91908080601f016020809104026020016040519081016040528093929190818152602001838380828437600092019190915250929550610455945050505050565b005b34801561028d57600080fd5b506102ba600480360360408110156102a457600080fd5b506001600160a01b038135169060200135610634565b604080516001600160a01b039092168252519081900360200190f35b3480156102e257600080fd5b5061012e600480360360208110156102f957600080fd5b50356001600160a01b031661066c565b34801561031557600080fd5b506100ab6004803603602081101561032c57600080fd5b50356001600160a01b0316610687565b34801561034857600080fd5b506102ba6004803603604081101561035f57600080fd5b506001600160a01b0381351690602001356106fb565b34801561038157600080fd5b506102ba6004803603602081101561039857600080fd5b5035610717565b3480156103ab57600080fd5b506100ab600480360360208110156103c257600080fd5b50356001600160a01b0316610741565b6060600280548060200260200160405190810160405280929190818152602001828054801561042a57602002820191906000526020600020905b81546001600160a01b0316815260019091019060200180831161040c575b5050505050905090565b6001600160a01b031660009081526001602052604090205490565b60025490565b600034338484604051610467906107b5565b80846001600160a01b031681526020018060200180602001838103835285818151815260200191508051906020019060200280838360005b838110156104b757818101518382015260200161049f565b50505050905001838103825284818151815260200191508051906020019080838360005b838110156104f35781810151838201526020016104db565b50505050905090810190601f1680156105205780820380516001836020036101000a031916815260200191505b50955050505050506040518091039082f0905080158015610545573d6000803e3d6000fd5b506002805460018181019092557f405787fa12a823e0f2b7631cc41b3ba8828b3321ca811111fa75cd3aa3bb5ace0180546001600160a01b0384166001600160a01b031991821681179092553360009081526020818152604082208054958601815582528120909301805490911690911790559091505b835181101561062e57600160008583815181106105d557fe5b6020908102919091018101516001600160a01b03908116835282820193909352604090910160009081208054600180820183559183529290912090910180546001600160a01b03191692851692909217909155016105bc565b50505050565b6000602052816000526040600020818154811061065057600080fd5b6000918252602090912001546001600160a01b03169150829050565b6001600160a01b031660009081526020819052604090205490565b6001600160a01b038116600090815260208181526040918290208054835181840281018401909452808452606093928301828280156106ef57602002820191906000526020600020905b81546001600160a01b031681526001909101906020018083116106d1575b50505050509050919050565b6001602052816000526040600020818154811061065057600080fd5b6002818154811061072757600080fd5b6000918252602090912001546001600160a01b0316905081565b6001600160a01b0381166000908152600160209081526040918290208054835181840281018401909452808452606093928301828280156106ef576020028201919060005260206000209081546001600160a01b031681526001909101906020018083116106d15750505050509050919050565b6104b3806107c38339019056fe60806040526040516104b33803806104b38339818101604052606081101561002657600080fd5b81516020830180516040519294929383019291908464010000000082111561004d57600080fd5b90830190602082018581111561006257600080fd5b825186602082028301116401000000008211171561007f57600080fd5b82525081516020918201928201910280838360005b838110156100ac578181015183820152602001610094565b50505050905001604052602001805160405193929190846401000000008211156100d557600080fd5b9083019060208201858111156100ea57600080fd5b825164010000000081118282018810171561010457600080fd5b82525081516020918201929091019080838360005b83811015610131578181015183820152602001610119565b50505050905090810190601f16801561015e5780820380516001836020036101000a031916815260200191505b506040525050600080546001600160a01b0319166001600160a01b0386161790555081516101939060019060208501906101b0565b5080516101a7906002906020840190610215565b505050506102a6565b828054828255906000526020600020908101928215610205579160200282015b8281111561020557825182546001600160a01b0319166001600160a01b039091161782556020909201916001909101906101d0565b50610211929150610291565b5090565b828054600181600116156101000203166002900490600052602060002090601f01602090048101928261024b5760008555610205565b82601f1061026457805160ff1916838001178555610205565b82800160010185558215610205579182015b82811115610205578251825591602001919060010190610276565b5b808211156102115760008155600101610292565b6101fe806102b56000396000f3fe608060405234801561001057600080fd5b50600436106100415760003560e01c806367e404ce14610046578063bfd772fc1461006a578063e21f37ce14610087575b600080fd5b61004e610104565b604080516001600160a01b039092168252519081900360200190f35b61004e6004803603602081101561008057600080fd5b5035610113565b61008f61013d565b6040805160208082528351818301528351919283929083019185019080838360005b838110156100c95781810151838201526020016100b1565b50505050905090810190601f1680156100f65780820380516001836020036101000a031916815260200191505b509250505060405180910390f35b6000546001600160a01b031681565b6001818154811061012357600080fd5b6000918252602090912001546001600160a01b0316905081565b6002805460408051602060018416156101000260001901909316849004601f810184900484028201840190925281815292918301828280156101c05780601f10610195576101008083540402835291602001916101c0565b820191906000526020600020905b8154815290600101906020018083116101a357829003601f168201915b50505050508156fea264697066735822122038aacc1a3771659e8bbe6748decf6497494f3eba8d3387ff6126a384b46cdda564736f6c63430007040033a26469706673582212203af4328d718134aa80204a20922f60eb4e91266df83edf967b39c473d77ed5a364736f6c63430007040033",
  "linkReferences": {},
  "deployedLinkReferences": {}
}